:100000000C945D000C9485000C9485000C94850084
:100010000C9485000C9485000C9485000C9485004C
:100020000C9485000C9485000C9485000C9485003C
:100030000C9485000C9485000C9485000C9485002C
:100040000C945C020C9485000C94CC020C94A602D7
:100050000C9485000C9485000C9485000C9485000C
:100060000C9485000C9485000000000024002700FB
:100070002A0000000000250028002B0004040404CE
:100080000404040402020202020203030303030342
:10009000010204081020408001020408102001021F
:1000A00004081020000000080002010000030407FB
:1000B0000000000000000000EA0311241FBECFEF83
:1000C000D8E0DEBFCDBF11E0A0E0B1E0E2E8F8E0AB
:1000D00002C005900D92A235B107D9F721E0A2E543
:1000E000B1E001C01D92A93FB207E1F710E0CDE5F4
:1000F000D0E004C02197FE010E943904CC35D1071D
:10010000C9F70E94FE020C943F040C940000EDEA33
:10011000F0E02491E9E9F0E09491E5E8F0E0E49181
:10012000EE23C9F0222339F0233001F1A8F4213065
:1001300019F1223029F1F0E0EE0FFF1FEE58FF4FCA
:10014000A591B4912FB7F894EC91811126C09095A8
:100150009E239C932FBF08952730A9F02830C9F023
:10016000243049F7209180002F7D03C0209180002A
:100170002F7720938000DFCF24B52F7724BDDBCFEE
:1001800024B52F7DFBCF2091B0002F772093B000B6
:10019000D2CF2091B0002F7DF9CF9E2BDACFAF9236
:1001A000BF92CF92DF92EF92FF920F931F93CF9364
:1001B000DF936C017B018B01040F151FEB015E01C6
:1001C000AE18BF08C017D10759F06991D601ED915B
:1001D000FC910190F081E02DC6010995892B79F7FA
:1001E000C501DF91CF911F910F91FF90EF90DF90AC
:1001F000CF90BF90AF900895FC01538D448D252F73
:1002000030E0842F90E0821B930B541710F0CF96B0
:10021000089501970895FC01918D828D981761F0E2
:10022000A28DAE0FBF2FB11D5D968C91928D9F5FF9
:100230009F73928F90E008958FEF9FEF0895FC01D8
:10024000918D828D981731F0828DE80FF11D858D8B
:1002500090E008958FEF9FEF0895FC01918D228D1E
:10026000892F90E0805C9F4F821B91098F739927A3
:1002700008958CE591E00E942D0121E0892B09F47D
:1002800020E0822F089580E090E0892B29F00E94E1
:10029000390181110C9400000895FC01A48DA80F70
:1002A000B92FB11DA35ABF4F2C91848D90E00196B8
:1002B0008F739927848FA689B7892C93A089B189D8
:1002C0008C91837080648C93938D848D981306C079
:1002D0000288F389E02D80818F7D80830895EF92DD
:1002E000FF920F931F93CF93DF93EC0181E0888FF0
:1002F0009B8D8C8D98131AC0E889F989808185FFC0
:1003000015C09FB7F894EE89FF896083E889F98961
:1003100080818370806480839FBF81E090E0DF9163
:10032000CF911F910F91FF90EF900895F62E0B8DB6
:1003300010E00F5F1F4F0F731127E02E8C8D8E1171
:100340000CC00FB607FCFACFE889F989808185FFD8
:10035000F5CFCE010E944D01F1CFEB8DEC0FFD2FBB
:10036000F11DE35AFF4FF0829FB7F8940B8FEA8993
:10037000FB8980818062CFCFCF93DF93EC01888DA2
:100380008823B9F0AA89BB89E889F9898C9185FD10
:1003900003C0808186FD0DC00FB607FCF7CF8C919E
:1003A00085FFF2CF808185FFEDCFCE010E944D0108
:1003B000E9CFDF91CF910895FC0101900020E9F78A
:1003C0003197AF01481B590BBC018CE591E00C94AF
:1003D000CF008F929F92AF92BF920F931F93CF93B4
:1003E000DF93CDB7DEB7A1970FB6F894DEBF0FBE8F
:1003F000CDBF19A2423008F44AE08E010F5D1F4FB5
:10040000842E912CB12CA12CA50194010E941704DB
:10041000E62FB901CA01EA30F4F4E05DD801EE93A9
:100420008D01232B242B252B79F790E080E010976A
:1004300019F0CD010E94DC01A1960FB6F894DEBF41
:100440000FBECDBFDF91CF911F910F91BF90AF90A5
:100450009F908F900895E95CE1CFCF92DF92EF9269
:10046000FF92CF93DF936B017C016DE28CE591E00D
:100470000E946F01EC0166277727CB016C197D097B
:100480008E099F094AE00E94E9018C0F9D1FDF91B0
:10049000CF91FF90EF90DF90CF900895CF93DF93AF
:1004A0000E94DC01EC0182E191E00E94DC018C0FF2
:1004B0009D1FDF91CF9108951F920F920FB60F925B
:1004C00011242F933F938F939F93AF93BF9380916A
:1004D000580190915901A0915A01B0915B0130915E
:1004E000570123E0230F2D3758F50196A11DB11DAB
:1004F000209357018093580190935901A0935A017A
:10050000B0935B018091530190915401A0915501EA
:10051000B09156010196A11DB11D80935301909396
:100520005401A0935501B0935601BF91AF919F9193
:100530008F913F912F910F900FBE0F901F901895A4
:1005400026E8230F0296A11DB11DD2CF1F920F9254
:100550000FB60F9211242F933F934F935F936F9396
:100560007F938F939F93AF93BF93EF93FF938CE50C
:1005700091E00E944D01FF91EF91BF91AF919F914A
:100580008F917F916F915F914F913F912F910F903C
:100590000FBE0F901F9018951F920F920FB60F92DB
:1005A00011242F938F939F93EF93FF93E0916C010E
:1005B000F0916D018081E0917201F091730182FDF3
:1005C0001BC09081809175018F5F8F7320917601A0
:1005D000821741F0E0917501F0E0E45AFE4F958FEB
:1005E00080937501FF91EF919F918F912F910F90C3
:1005F0000FBE0F901F9018958081F4CF789484B52A
:10060000826084BD84B5816084BD85B5826085BD0E
:1006100085B5816085BD80916E00816080936E009C
:10062000109281008091810082608093810080918E
:10063000810081608093810080918000816080933F
:1006400080008091B10084608093B1008091B000FF
:1006500081608093B00080917A00846080937A00FA
:1006600080917A00826080937A0080917A00816024
:1006700080937A0080917A00806880937A0010924B
:10068000C100E0916C01F0916D0182E08083E09106
:100690006801F09169011082E0916A01F0916B01AB
:1006A0008FEC808310927401E0917001F0917101E0
:1006B00086E08083E0916E01F0916F01808180611E
:1006C0008083E0916E01F0916F018081886080836A
:1006D000E0916E01F0916F01808180688083E091EC
:1006E0006E01F0916F0180818F7D8083E9E9F0E0F8
:1006F0002491E5E8F0E08491882399F090E0880F58
:10070000991FFC01E859FF4FA591B491FC01EE58E7
:10071000FF4F859194918FB7F894EC91E22BEC9375
:100720008FBF80E4E82E00E010E0E0927C00809132
:100730007A00806480937A0080917A0086FDFCCFF5
:1007400060917800C0917900DC2FC62FF0905201A3
:10075000C53581E0D8073CF581E00E948700F110A3
:1007600014C085E191E00E944E02BE010D2E000CE6
:10077000880B990BD7FF13C00E942D0285E291E0F0
:100780000E944E0281E0809352010115110569F229
:100790000E943901882349F20E940000C6CF4AE036
:1007A0000E94E901EBCF80E00E948700FF2069F3FF
:1007B00081E491E00E944E02BE01DD0F880B990B8F
:1007C0004AE00E94E90185E291E00E944E02109207
:1007D0005201DBCFECE5F1E01382128288EE93E068
:1007E000A0E0B0E084839583A683B78384E091E0A2
:1007F0009183808385EC90E09587848784EC90E0FA
:100800009787868780EC90E0918B808B81EC90E0DD
:10081000938B828B82EC90E0958B848B86EC90E0BE
:10082000978B868B118E128E138E148E0895A1E2F3
:100830001A2EAA1BBB1BFD010DC0AA1FBB1FEE1F5A
:10084000FF1FA217B307E407F50720F0A21BB30BA5
:10085000E40BF50B661F771F881F991F1A9469F721
:1008600060957095809590959B01AC01BD01CF017D
:100870000895EE0FFF1F0590F491E02D0994F89470
:02088000FFCFA8
:10088200000000006F01CF00FC00BC012D010B0134
:100892001F010D0A004C4544206C69676874206989
:1008A20073204F4E0020697320746865206F757441
:1008B2007075742076616C7565206F66204C4452A9
:1008C200004C4544206C69676874206973204F4668
:0208D2004600DE
:107E0000112484B714BE81FFF0D085E080938100F7
:107E100082E08093C00088E18093C10086E0809377
:107E2000C20080E18093C4008EE0C9D0259A86E02C
:107E300020E33CEF91E0309385002093840096BBD3
:107E4000B09BFECF1D9AA8958150A9F7CC24DD24C4
:107E500088248394B5E0AB2EA1E19A2EF3E0BF2EE7
:107E6000A2D0813461F49FD0082FAFD0023811F036
:107E7000013811F484E001C083E08DD089C08234E0
:107E800011F484E103C0853419F485E0A6D080C0E4
:107E9000853579F488D0E82EFF2485D0082F10E0AE
:107EA000102F00270E291F29000F111F8ED06801E7
:107EB0006FC0863521F484E090D080E0DECF843638
:107EC00009F040C070D06FD0082F6DD080E0C81688
:107ED00080E7D80618F4F601B7BEE895C0E0D1E017
:107EE00062D089930C17E1F7F0E0CF16F0E7DF06D8
:107EF00018F0F601B7BEE89568D007B600FCFDCFD4
:107F0000A601A0E0B1E02C9130E011968C91119780
:107F100090E0982F8827822B932B1296FA010C0160
:107F200087BEE89511244E5F5F4FF1E0A038BF0790
:107F300051F7F601A7BEE89507B600FCFDCF97BE46
:107F4000E89526C08437B1F42ED02DD0F82E2BD052
:107F50003CD0F601EF2C8F010F5F1F4F84911BD097
:107F6000EA94F801C1F70894C11CD11CFA94CF0C13
:107F7000D11C0EC0853739F428D08EE10CD085E9AC
:107F80000AD08FE07ACF813511F488E018D01DD067
:107F900080E101D065CF982F8091C00085FFFCCF94
:107FA0009093C60008958091C00087FFFCCF809118
:107FB000C00084FD01C0A8958091C6000895E0E648
:107FC000F0E098E1908380830895EDDF803219F02E
:107FD00088E0F5DFFFCF84E1DECF1F93182FE3DFCA
:107FE0001150E9F7F2DF1F91089580E0E8DFEE27F6
:047FF000FF270994CA
:027FFE00040479
:0400000300007E007B
:00000001FF
